:020000040800F2
:1000000000000220A5200008F5200008F5200008C7
:10001000F5200008F5200008F52000080000000089
:10002000000000000000000000000000F5200008B3
:10003000F520000800000000F5200008D51F00088A
:10004000F5200008F5200008F5200008F52000083C
:10005000F5200008F5200008E11F0008F520000841
:10006000F5200008F5200008F5200008F52000081C
:10007000F5200008F5200008F5200008F52000080C
:10008000F5200008F5200008F5200008F5200008FC
:10009000F5200008F5200008F5200008F5200008EC
:1000A000F5200008F5200008F5200008F5200008DC
:1000B000F5200008F5200008F5200008F5200008CC
:1000C000F5200008F5200008F5200008F5200008BC
:1000D000F5200008F520000849200008F520000858
:1000E000F5200008F5200008F5200008F52000089C
:1000F000F5200008F5200008F5200008F52000088C
:10010000F5200008F5200008F5200008F52000087B
:10011000F5200008F5200008F5200008F52000086B
:10012000F5200008F5200008F5200008F52000085B
:10013000F5200008F5200008F5200008F52000084B
:10014000F5200008F5200008F5200008F52000083B
:10015000F5200008F5200008F5200008F52000082B
:10016000F5200008F5200008F5200008F52000081B
:10017000F5200008F5200008F52000080000000028
:08018000F5200008F52000083D
:1001900010B5054C237833B9044B13B10448AFF3C1
:1001A00000800123237010BDEC010020000000003E
:1001B000A02B000808B5034B1BB103490348AFF35C
:1001C000008008BD00000000F0010020A02B000806
:1001D00053B94AB9002908BF00281CBF4FF0FF31AE
:1001E0004FF0FF3000F072B9ADF1080C6DE904CEAC
:1001F00000F006F8DDF804E0DDE9022304B0704702
:100200002DE9F047089E04468846002B4BD18A42D0
:10021000154667D9B2FA82F24AB1C2F1200701FA53
:1002200002F320FA07F7954047EA030894404FEAA3
:10023000154E230CB8FBFEF71FFA85FC0EFB178842
:1002400043EA084307FB0CF1994209D9EB1807F17F
:10025000FF3080F01B81994240F21881023F2B440D
:100260005B1AA4B2B3FBFEF00EFB103344EA034466
:1002700000FB0CFCA44509D92C1900F1FF3380F0D8
:100280000781A44540F2048102382C4440EA07402B
:10029000A4EB0C0400271EB1D4400023C6E90043A0
:1002A0003946BDE8F0878B4209D9002E00F0EB807B
:1002B0000027C6E9000138463946BDE8F087B3FAA1
:1002C00083F7002F47D18B4202D3824200F2FA809B
:1002D000841A61EB030301209846002EE0D0C6E9A2
:1002E0000048DDE702B9FFDEB2FA82F2002A40F0F0
:1002F0008F80491B4FEA154E1FFA85F80127B1FB85
:10030000FEFC230C0EFB1C1143EA014308FB0CF11D
:10031000994207D9EB180CF1FF3002D2994200F252
:10032000CD808446591AA3B2B1FBFEF00EFB101427
:1003300043EA044408FB00F8A04507D92C1900F152
:10034000FF3302D2A04500F2B6801846A4EB0804A1
:1003500040EA0C409FE7C7F1200CBB4022FA0CFE9C
:100360004EEA030E01FA07F420FA0CF521FA0CF319
:100370004FEA1E482543B3FBF8F92C0C08FB193350
:100380001FFA8EFA44EA034309FB0AF49C4202FA7C
:1003900007F200FA07F10BD91EEB030309F1FF3056
:1003A00080F087809C4240F28480A9F10209734466
:1003B0001B1BADB2B3FBF8F008FB103345EA034456
:1003C00000FB0AFAA24508D91EEB040400F1FF3332
:1003D0006BD2A24569D90238744440EA0940A0FBB7
:1003E0000289A4EB0A044C45C2464B4654D351D073
:1003F000002E69D0B1EB0A0564EB030404FA0CFC8F
:10040000FD40FC404CEA0505C6E90054002747E7DB
:10041000C2F1200320FA03F7954001FA02F021FA15
:1004200003F34FEA154E3843010CB3FBFEF71FFAF6
:1004300085F80EFB173341EA034107FB08F38B42B3
:1004400004FA02F407D9691807F1FF3C2FD28B4256
:100450002DD9023F2944CB1A81B2B3FBFEF00EFB2B
:10046000103341EA034100FB08F38B4207D96918B6
:1004700000F1FF3C17D28B4215D902382944C91A22
:1004800040EA07473BE73746304609E70746E7E6D5
:100490001846FBE64145ABD2B8EB020A69EB0E0207
:1004A00001381346A4E76046E9E7184695E7674632
:1004B000D1E781467CE702382C4447E7ACF1020CD7
:1004C0002B442FE7384608E73746E9E6704700BF78
:1004D00001F0FF01102A2BDB10F0070F08D010F8F5
:1004E000013B013A8B422DD010F0070F42B3F6D1F9
:1004F000F0B441EA012141EA014122F007047FF012
:1005000000070023F0E80256083C85EA010586EA68
:10051000010685FA47F5A3FA87F586FA47F6A5FAA4
:1005200087F68EB9EED1F0BC01F0FF0102F00702B0
:1005300032B110F8013B013A83EA010313B1F8D15B
:100540000020704701387047002D06BF354603383C
:10055000073815F0010F07D1013015F4807F02BF75
:10056000013015F4C03F0130F0BC0138704700BFC6
:1005700010B504460E4B18784FF47A73B3FBF0F3C2
:100580000C4A1068B0FBF3F000F0A8F868B90F2C23
:1005900001D901200AE0002221464FF0FF3000F08F
:1005A0005DF8034B5C60002000E0012010BD00BF3F
:1005B000000000201800002008B50B4B1A6842F418
:1005C00000721A601A6842F480621A601A6842F473
:1005D00080721A60032000F02FF80020FFF7C8FF98
:1005E00001F07EFC002008BD003C0240034A116877
:1005F000034B1B780B441360704700BF4002002080
:1006000000000020014B1868704700BF4002002026
:1006100038B50446FFF7F6FF0546B4F1FF3F02D0B8
:10062000044B1B781C44FFF7EDFF401BA042FAD39C
:1006300038BD00BF00000020074AD36823F4E06300
:100640001B041B0C000200F4E060184340F0BF6084
:1006500040F40030D060704700ED00E030B4174B3C
:10066000DB68C3F30223C3F10704042C28BF04246E
:100670001D1D062D18D9033B4FF0FF3505FA04F474
:1006800021EA0401994005FA03F322EA030319431E
:1006900000280BDB0901C9B200F1604000F56140A0
:1006A00080F8001330BC70470023E5E700F00F002E
:1006B0000901C9B2024B1954F4E700BF00ED00E094
:1006C00014ED00E000F01F02400901239340024AAC
:1006D00042F82030704700BF00E100E00138B0F17F
:1006E000807F0AD2064B5860064AF02182F8231018
:1006F0000020986007221A6070470120704700BFF1
:1007000010E000E000ED00E0042805D0054A136881
:1007100023F0040313607047024A136843F0040394
:100720001360704710E000E0704708B5FFF7FCFF6A
:1007300008BD90F83530DBB2022B03D0802343652F
:1007400001207047052380F835300268136823F0D4
:10075000010313600020704700230F2B00F2D780A5
:10076000F0B482B039E0072200E00022B2403A4300
:100770000234674E46F82420664A1468EA4302EAC7
:1007800004064F6817F4803F01D045EA0406614C27
:100790002660646802EA04064F6817F4003F01D03F
:1007A00045EA04065B4C6660A46802EA04064F68EA
:1007B00017F4801F01D045EA0406564CA660E46891
:1007C00022404E6816F4001F01D045EA0402514C45
:1007D000E26001330F2B00F2978001229A400C68EF
:1007E00004EA0205AA42F4D14C68022C01D0122C72
:1007F00010D1DE08083650F826C003F00704A70021
:100800000F24BC402CEA040C0C69BC4044EA0C04E4
:1008100040F8264004685F000326BE40F64306EA1F
:10082000040C4C6804F00304BC4044EA0C0404606B
:100830004C6804F1FF3CBCF1010F03D9112C01D02D
:10084000122C10D1846806EA040CCC68BC4044EA3F
:100850000C048460446824EA02024C68C4F3001467
:100860009C4014434460C26816408A68BA403243D0
:10087000C2604A6812F0805FABD000220192264A23
:10088000546C44F480445464526C02F480420192EB
:10089000019A9C08A61C1E4A52F8267003F0030217
:1008A00096000F22B24027EA02071C4A90423FF40A
:1008B0005CAF02F5806290421AD002F580629042ED
:1008C00018D002F58062904216D002F58062904204
:1008D00014D002F58062904212D002F580629042FC
:1008E00010D002F5806290423FF43DAF08223DE710
:1008F00001223BE7022239E7032237E7042235E7EA
:10090000052233E7062231E702B0F0BC704770479A
:1009100000380140003C0140003802400000024025
:100920000369194201D1002070470120704712B9B4
:100930000904816170478161704743695940416191
:100940007047704708B5054B5B69034200D108BD8D
:10095000024B5861FFF7F5FFF9E700BF003C01408B
:10096000002800F0BB8170B582B00446036813F024
:10097000010F3BD0A74B9B6803F00C03042B2CD03A
:10098000A44B9B6803F00C03082B21D06368B3F5DC
:10099000803F4FD0B3F5A02F52D09E4B1A6822F45F
:1009A00080321A601A6822F480221A606368002B71
:1009B00050D0FFF727FE0546964B1B6813F4003F07
:1009C00014D1FFF71FFE401B6428F5D903208AE1EC
:1009D000904B5B6813F4800FD8D08E4B1B6813F4D8
:1009E000003F03D06368002B00F07A81236813F086
:1009F000020F55D0874B9B6813F00C0F3ED0854BF0
:100A00009B6803F00C03082B33D0E368002B68D0FD
:100A1000814B01221A60FFF7F5FD05467D4B1B68EF
:100A200013F0020F54D1FFF7EDFD401B0228F5D95A
:100A3000032058E1774A136843F480331360B5E725
:100A4000744B1A6842F480221A601A6842F48032A9
:100A50001A60ABE7FFF7D6FD05466E4B1B6813F433
:100A6000003FC3D0FFF7CEFD401B6428F5D903201B
:100A700039E1684B5B6813F4800FC6D1654B1B6886
:100A800013F0020F04D0E368012B01D001202AE10A
:100A9000604A136823F0F803216943EAC103136035
:100AA000236813F0080F40D0636963B35B4B0122E6
:100AB0001A60FFF7A7FD0546564B5B6F13F0020F58
:100AC00033D1FFF79FFD401B0228F5D903200AE12F
:100AD000504A136823F0F803216943EAC103136005
:100AE000DEE74D4B00221A60FFF78CFD0546494BAF
:100AF0001B6813F0020FD3D0FFF784FD401B0228C0
:100B0000F5D90320EFE0454B00221A60FFF77AFD8C
:100B10000546404B5B6F13F0020F06D0FFF772FDE6
:100B2000401B0228F5D90320DDE0236813F0040FF1
:100B300079D0384B1B6C13F0805F33D100230193C5
:100B4000344B1A6C42F080521A641B6C03F08053D1
:100B50000193019B0125324B1B6813F4807F23D046
:100B6000A368012B34D0052B38D02A4B1A6F22F002
:100B700001021A671A6F22F004021A67A368002B99
:100B800036D0FFF73FFD0646224B1B6F13F0020FD6
:100B900048D1FFF737FD801B41F288339842F3D9E3
:100BA0000320A0E00025D6E71D4A136843F48073B4
:100BB0001360FFF727FD0646194B1B6813F4807F6F
:100BC000CED1FFF71FFD801B0228F5D903208AE054
:100BD000104A136F43F001031367CFE70D4B1A6FF1
:100BE00042F004021A671A6F42F001021A67C5E761
:100BF000FFF708FD0646074B1B6F13F0020F11D0DD
:100C0000FFF700FD801B41F288339842F3D903209F
:100C100069E000BF0038024000004742800E4742B2
:100C200000700040E5B9A369002B5BD0304A9268A0
:100C300002F00C02082A58D0022B17D02D4B0022AC
:100C40001A60FFF7DFFC0446294B1B6813F0007F96
:100C500042D0FFF7D7FC001B0228F5D9032042E061
:100C6000234A136C23F080531364DCE7214B0022EA
:100C70001A60FFF7C7FC05461D4B1B6813F0007F89
:100C800006D0FFF7BFFC401B0228F5D903202AE05D
:100C9000E369226A1343626A43EA8213A26A520832
:100CA000013A43EA0243E26A43EA0263104A5360AC
:100CB000104B01221A60FFF7A5FC04460C4B1B6881
:100CC00013F0007F06D1FFF79DFC001B0228F5D929
:100CD000032008E0002006E0002004E00120704727
:100CE000012000E0002002B070BD0120FBE700BF42
:100CF0000038024060004742324B9B6803F00C030F
:100D0000042B5CD0082B01D02F4870472DE9F04B05
:100D10002C4B5A6802F03F025B6813F4800F2BD013
:100D2000284B5B68C3F388131E4600275C0100252F
:100D3000E41A65EB0705A90141EA9461A001001BD3
:100D400061EB0501CB0043EA5073C400A01943EBEB
:100D500007014B0243EAD0534402204619460023C0
:100D6000FFF736FA174B5B68C3F3014301335B00AF
:100D7000B0FBF3F0BDE8F08B124B5B68C3F3881354
:100D80001E4600275C010025E41A65EB0705A90152
:100D900041EA9461A001001B61EB0501CB0043EA2D
:100DA0005073C400A01943EB07018B0243EA905330
:100DB0008402204619460023FFF70AFAD2E70348C7
:100DC000704700BF003802400024F40000127A008F
:100DD000002800F09D8070B504464F4B1B6803F05F
:100DE0000F038B4209D2CBB24B4A1370136803F046
:100DF0000F038B4201D0012070BD236813F0020F56
:100E000017D013F0040F04D0444A936843F4E0531E
:100E10009360236813F0080F04D0404A936843F4AA
:100E2000604393603D4A936823F0F003A068034356
:100E300093600D46236813F0010F32D06368012BD5
:100E400021D09A1E012A25D9344A126812F0020FC5
:100E500060D032498A6822F0030213438B60FFF7A7
:100E6000D1FB06462D4B9B6803F00C036268B3EB85
:100E7000820F16D0FFF7C6FB801B41F288339842E1
:100E8000F0D90320B8E7254A126812F4003FE0D1F8
:100E90000120B1E7214A126812F0007FD9D1012068
:100EA000AAE71D4B1B6803F00F03AB4209D9EAB256
:100EB000194B1A701B6803F00F03AB4201D00120DD
:100EC0009AE7236813F0040F06D0144A936823F4BA
:100ED000E053E1680B439360236813F0080F07D0D9
:100EE0000E4A936823F46043216943EAC103936087
:100EF000FFF702FF094B9B68C3F30313084AD35C57
:100F0000D840084B18600020FFF732FB002073E741
:100F10000120704701206FE7003C0240003802408A
:100F2000B82B000818000020014B1868704700BF5C
:100F30001800002008B5FFF7F7FF044B9B68C3F3C8
:100F40008223034AD35CD84008BD00BF003802406A
:100F5000C82B000808B5FFF7E7FF044B9B68C3F3F5
:100F60004233034AD35CD84008BD00BF003802407A
:100F7000C82B00080268D36823F49073D36002681A
:100F8000536923F001035361202380F83A307047FE
:100F900090F83930DBB2212B2AD18368B3F5805F1A
:100FA00016D0036A5A1C02621A7803685A60C38C0E
:100FB000013B9BB2C384EBB90268D36823F0800382
:100FC000D3600268D36843F04003D36000207047C9
:100FD000036A1B880268C3F30803536003691BB9E3
:100FE000036A02330362E2E7036A01330362DEE766
:100FF00002207047002070472DE9F843044601683D
:101000000A6922F44052C36813430B610168CA683D
:1010100022F4164222F00C028368006903436069DF
:101020000343E06903431343CB6021684A6922F418
:101030004072A36913434B61E369B3F5004F60D07D
:101040002368B84A934200F0148102F5806293420B
:1010500000F00F81FFF76EFF00EB800000EB8000D7
:101060006568AD00B0FBF5F5AF4FA7FB05356D0921
:101070002E01FFF75FFF00EB800000EB800065684A
:10108000AD00B0FBF5F9FFF755FF00EB800000EB7A
:1010900080006568AD00B0FBF5F5A7FB05356D096F
:1010A0004FF0640808FB15952D013235A7FB053577
:1010B0006D0905F0F0053544FFF73CFF00EB8000BB
:1010C00000EB80006668B600B0FBF6F6FFF732FF73
:1010D00000EB800000EB800063689B00B0FBF3F046
:1010E000A7FB0030400908FB10684FEA081808F118
:1010F0003208A7FB0837C7F3431723682F449F60C4
:101100000DE12368874A93425BD002F580629342E7
:1011100057D0FFF70FFF00EB800000EB8000656801
:101120006D00B0FBF5F5804FA7FB05356D092E016D
:10113000FFF700FF00EB800000EB800065686D00AA
:10114000B0FBF5F9FFF7F6FE00EB800000EB800046
:1011500065686D00B0FBF5F5A7FB05356D094FF02F
:10116000640808FB1595ED003235A7FB05356D09C0
:101170006D0005F4F8753544FFF7DCFE00EB8000E8
:1011800000EB800066687600B0FBF6F6FFF7D2FE53
:1011900000EB800000EB800063685B00B0FBF3F3C2
:1011A000A7FB03235B0908FB13684FEAC80808F193
:1011B0003208A7FB0837C7F3421723682F449F6004
:1011C000ADE0FFF7C7FE00EB800000EB8000656834
:1011D0006D00B0FBF5F5544FA7FB05356D092E01E9
:1011E000FFF7B8FE00EB800000EB800065686D0043
:1011F000B0FBF5F9FFF7AEFE00EB800000EB8000DE
:1012000065686D00B0FBF5F5A7FB05356D094FF07E
:10121000640808FB1595ED003235A7FB05356D090F
:101220006D0005F4F8753544FFF794FE00EB80007F
:1012300000EB800066687600B0FBF6F6FFF78AFEEA
:1012400000EB800000EB800063685B00B0FBF3F311
:10125000A7FB03235B0908FB13684FEAC80808F1E2
:101260003208A7FB0837C7F3421723682F449F6053
:1012700055E0FFF76FFE00EB800000EB8000656833
:10128000AD00B0FBF5F5284FA7FB05356D092E0124
:10129000FFF760FE00EB800000EB80006568AD00AA
:1012A000B0FBF5F9FFF756FE00EB800000EB800085
:1012B0006568AD00B0FBF5F5A7FB05356D094FF08E
:1012C000640808FB15952D013235A7FB05356D091E
:1012D00005F0F0053544FFF73DFE00EB800000EB24
:1012E00080006668B600B0FBF6F6FFF733FE00EB51
:1012F000800000EB800063689B00B0FBF3F0A7FB6D
:101300000030400908FB10684FEA081808F132085D
:10131000A7FB0837C7F3431723682F449F60BDE836
:10132000F88300BF001001401F85EB512DE9F0410B
:1013300005460F4616469846069C2B681B6837EAFA
:1013400003030CBF01230023B3421DD1B4F1FF3FBF
:10135000F3D02CB1FFF756F9A0EB0800A042ECD96E
:101360002A68D36823F4D073D3602A68536923F0C2
:1013700001035361202385F8393085F83A30002382
:1013800085F83830032000E00020BDE8F08158B334
:1013900010B5044690F839300BB3242384F8393063
:1013A0002268D36823F40053D3602046FFF724FE5D
:1013B0002268136923F4904313612268536923F070
:1013C0002A0353612268D36843F40053D36000209A
:1013D000E063202384F8393084F83A3010BD80F877
:1013E000383000F0C7FDD8E7012070472DE9F04103
:1013F00082B01E4690F83930DBB2202B55D104461E
:101400000D469046002955D0002A55D090F8383026
:10141000012B53D0012380F838300023C3632123EC
:1014200080F83930FFF7EEF80746A4F82480A4F8D6
:10143000268010E000963B46002280212046FFF7E0
:1014400075FF00283CD12B882268C3F30803536042
:101450002369C3B90235E38C9BB2B3B1E38C013B82
:101460009BB2E384A368B3F5805FE3D000963B466C
:10147000002280212046FFF759FF18BB2A782368F5
:101480005A600135E7E70135E5E700963B46002263
:1014900040212046FFF74AFF0346A8B9202284F8DE
:1014A0003920002284F8382000E00223184602B0D8
:1014B000BDE8F0810123F9E70123F7E70223F5E70F
:1014C0000323F3E70323F1E70323EFE72DE9F041DB
:1014D00082B01E4690F83A30DBB2202B5AD1044637
:1014E0000D469046002959D0002A59D090F838303E
:1014F000012B57D0012380F838300023C363222307
:1015000080F83A30FFF77EF80746A4F82C80A4F85C
:101510002E801DE000963B46002220212046FFF74A
:1015200005FF002840D1236933B923685B68C3F302
:10153000080325F8023B0BE023685B68DBB225F863
:10154000013B05E023685B6803F07F032B700135E6
:10155000E38D9BB2BBB1E38D013B9BB2E385A368F6
:10156000B3F5805FD6D000963B460022202120466E
:10157000FFF7DCFED0B92369002BE3D123685B6859
:101580002B700135E4E7202384F83A30002084F8FA
:10159000380000E0022002B0BDE8F0810120FAE747
:1015A0000120F8E70220F6E70320F4E70320F2E742
:1015B000704708B50168CB6823F04003CB60202357
:1015C00080F83930FFF7F4FF002008BD704708B5F8
:1015D00090F83A30DBB2222B40D18368B3F5805FBC
:1015E0000ED0036903BB03685A68836A591C816281
:1015F0001A70C38D013B9BB2C385F3B100202EE06E
:10160000826A036943B903685B68C3F30803138004
:10161000836A02338362ECE703685B68DBB21380A2
:10162000836A01338362E4E703685B68826A511C62
:10163000816203F07F031370DBE70268D36823F451
:101640009073D3600268536923F001035361202330
:1016500080F83A30FFF7BAFF002000E0022008BD12
:101660007047000010B5044602681368D1685269DB
:1016700013F00F0005D113F0200F02D011F0200F4E
:1016800053D1002867D012F0010202D111F4907FEB
:1016900061D013F0010F06D011F4807F03D0E06B0E
:1016A00040F00100E06313F0040F04D01AB1E06BC6
:1016B00040F00200E06313F0020F04D01AB1E06BB7
:1016C00040F00400E06313F0080F04D01AB1E26B9D
:1016D00042F00802E263E26B002A48D013F0200FC8
:1016E00002D011F0200F24D123685B6903F040037E
:1016F000E26B12F0080F00D13BB32046FFF73AFC33
:1017000023685A6912F0400F1BD05A6922F0400238
:101710005A61636B8BB11A4A1A65606BFFF709F85F
:1017200028B3606B036D984721E02046FFF74FFF19
:101730001DE02046FFF74BFFD6E72046FFF790FF5E
:1017400015E02046FFF78CFF11E02046FFF788FFE9
:101750000023E3630BE013F0800F02D011F0800F41
:1017600006D113F0400F02D011F0400F04D110BD8C
:101770002046FFF70DFCFAE72046FFF71AFFF6E7D1
:101780008517000808B5806B0023C385C384FFF765
:1017900067FF08BD2DE9F04F8DB0002401947B4B0D
:1017A0001A6B42F010021A631A6B02F010020192D7
:1017B000019A02941A6B42F004021A631A6B02F047
:1017C00004020292029A03941A6B42F080021A6396
:1017D0001A6B02F080020392039A04941A6B42F08F
:1017E00001021A631A6B02F001020492049A059432
:1017F0001A6B42F002021A631A6B02F0020205929F
:10180000059A06941A6B42F008021A631B6B03F0E8
:1018100008030693069B224608215D48FFF787F8D8
:10182000DFF88491012211464846FFF780F82246EE
:101830004FF214015748FFF77AF80825079501265B
:10184000089609940A9407A95148FEF785FF079660
:10185000089609940A9407A94846FEF77DFF079564
:101860000225089509940A944FF0050ACDF82CA09A
:1018700007A94846FEF770FF0796474B089309945F
:10188000464F07A93846FEF767FF102307930895D0
:1018900009940A944FF00608CDF82C8007A9384621
:1018A000FEF75AFFE0230793089509940A94CDF8B0
:1018B0002CA007A93846FEF74FFF4FF0040BCDF8D8
:1018C0001CB00894099407A93548FEF745FF4FF46A
:1018D00080630793089509940A94CDF82CA007A972
:1018E0002F48FEF739FF4FF2140307930896099427
:1018F0000A9407A92748FEF72FFF4FF4A453079334
:10190000089509940A94CDF82C8007A94846FEF75B
:1019100023FF4FF4007307930894099407A93846EE
:10192000FEF71AFF4FF4E0530793089509940A94C1
:101930000A230B9307A93846FEF70EFF22230793CD
:101940000894099407A91348FEF706FF4FF4107393
:1019500007931223089309960A94CDF82CB007A98F
:101960000F48FEF7F9FE07950E4B0893099407A957
:101970000748FEF7F1FE224621464046FEF76EFE7E
:101980004046FEF79FFE0DB0BDE8F08F00380240E4
:1019900000100240000C0240000011100000024044
:1019A00000040240000012100008024084B02DE93B
:1019B000F04186B00CAC84E80F00BDF838500195BA
:1019C00001260296002403940494804601A9FEF7A0
:1019D000C3FEBDF83A3001930294039604940D9F20
:1019E00001A93846FEF7B8FE324629464046FEF7C2
:1019F0009EFF3220FEF70CFE224629463846FEF7AF
:101A000096FF06B0BDE8F04104B0704784B02DE900
:101A1000F84308AC84E80F00DDF82480BDF82A9074
:101A200049464046FEF77CFF0128F5D000242546B4
:101A300006E0002239463046FEF779FF0134E4B271
:101A4000172C10D8089EBDF8287001223946304660
:101A5000FEF76DFF6D0049464046FEF761FF002826
:101A6000E7D00135E5E700240DE0089EBDF82870B9
:101A7000012239463046FEF75AFF002239463046E9
:101A8000FEF755FF01340C9BA342EEDC85F4000009
:101A9000BDE8F84304B0704784B070B582B006ACBE
:101AA00084E80F009DF82C50002426460CE00A9B89
:101AB000009306AB0FCBFFF7A9FF06444FF400419C
:101AC0000648FEF73AFF0134A542F0DC96FBF5F03C
:101AD00002B0BDE8704004B0704700BF000C024087
:101AE00084B070B582B0064607AC84E80E009DF85D
:101AF000303001930B9B009394E80F00FFF7CCFF6D
:101B00000A9035460FCC0FC523682B60304602B0D3
:101B1000BDE8704004B0704710B582B00C4C23692A
:101B2000009394E80F00FFF771FFE368C01A094BB8
:101B30001860002809DB074B1B68074880FB03205F
:101B4000DB17C3EBA01002B010BD00221A60F2E751
:101B5000700300206C0300206160606008B5FFF72F
:101B6000DBFF104A1368181A5368984212DA0E4BBA
:101B700018600D4B1B68002B0FDB0B4B5A68196864
:101B80000A445A6001229A604FF480510748FEF7D8
:101B9000D4FE08BD044A1360EBE7034B00221A6031
:101BA000EBE700BF0800002008020020000C024004
:101BB000FEE7000008B50B480B4B03604FF4E13320
:101BC000436000238360C36003610C224261836130
:101BD000C361FFF7DCFB00B908BD4FF4B6710348E1
:101BE000FFF7E6FF8403002000440040D02B0008EC
:101BF00000B595B0002301932B4A116C41F0805140
:101C00001164126C02F080520192019A0293274AE9
:101C1000116841F480411160126802F4804202921E
:101C2000029A0222089201210B9110210C910E922E
:101C30000F93082310933223119304231293072345
:101C4000139308A8FEF78CFE18BB0F2303930223FF
:101C50000493002105914FF4C05306934FF4A05311
:101C6000079303A8FFF7B4F8C0B9FFF75DF9104B6D
:101C7000A3FB00308009FEF731FD0420FEF744FD90
:101C8000002211464FF0FF30FEF7E8FC15B05DF87A
:101C900004FB4FF4A2710748FFF78AFF40F251118D
:101CA0000448FFF785FF00BF003802400070004085
:101CB000D34D6210D02B0008F0B58BB0FEF77CFC42
:101CC000FFF796FFFFF766FDFFF774FF774E4FF4BF
:101CD00080413046FEF731FE754C66602660022377
:101CE00063810423238101272761009794E80F0073
:101CF000FFF75CFE6423029304F10C0393E80300F6
:101D00008DE8030094E80E0004A8FFF7E9FE04AD97
:101D10000FCD0FC42B6823604FF480513046FEF77F
:101D20000CFE4FF400513046FEF707FE3A464FF4E2
:101D300000413046FEF7FBFD3EE000225D4C5E4D6B
:101D4000A1690191009262695C49284600F004FA99
:101D500064234FF4807229465948FFF747FB00235C
:101D60006361E360A3616360564B1B682361514B61
:101D7000DB690A2B41D04FF4FA73072252495048CD
:101D8000FFF7A4FB28B9504B1B78312B4CD0322BDA
:101D900058D0484B9B68012B77D0464BDA6901320B
:101DA000DA61DA680132DA604FF400413F48FEF749
:101DB000C4FD6420FEF72CFC4FF4807200213E48E5
:101DC00000F0C2F9FFF7A8FE04463E4B186020223F
:101DD00000213D4800F0B8F9364BDA683B4B9B6870
:101DE0009A42C4DB334A536812691A44141BA24254
:101DF000A4DB002CA1DB2246A0E72E4C314B1A6855
:101E00002D4DA3690193E368009363693049284627
:101E100000F0A2F964234FF4807229462848FFF7A6
:101E2000E5FA0023E361A6E74FF480411F48FEF77F
:101E300084FDFFF793FE1F4B5A6901325A6100225D
:101E40009A60A6E7234D29461F4800F0A5F92946C8
:101E5000002000F0A1F900F04EF91C4CE06029468A
:101E6000002000F099F900F046F903466060124D39
:101E7000E2681949284600F06FF964234FF4807234
:101E800029460F48FFF7B2FA83E70A4C0A4D226849
:101E90001249284600F060F964234FF48072294605
:101EA0000748FFF7A3FA0023A36076E7000C02407F
:101EB000700300200802002048020020E02B0008E8
:101EC00084030020480300204C0300200800002069
:101ED000242C0008682C00086C2C00089C2C00089E
:101EE00010B582B000240094214B5A6C42F4804219
:101EF0005A645A6C02F480420092009A01941A6C5F
:101F000042F080521A641B6C03F080530193019BD2
:101F10000720FEF791FB224621466FF00B00FEF7EB
:101F20009DFB224621466FF00A00FEF797FB2246F2
:101F300021466FF00900FEF791FB224621466FF023
:101F40000400FEF78BFB224621466FF00300FEF7EC
:101F500085FB224621466FF00100FEF77FFB2246FB
:101F600021464FF0FF30FEF779FB02B010BD00BFF5
:101F7000003802400268154B9A4200D0704710B5F5
:101F800086B00024009403F5FA331A6C42F4003250
:101F90001A641B6C03F400330093009B0C23019321
:101FA000022302930123039303230493072305933E
:101FB00001A90748FEF7D0FB224621462620FEF75E
:101FC0004DFB2620FEF77EFB06B010BD004400400E
:101FD0000000024008B5FEF709FBFEF7A6FB08BDAE
:101FE00008B54FF400511248FEF7A7FC114B1A68D0
:101FF000114B1B689A420BDB104A136801331360C4
:1020000001210F48FEF78CFC0128F9D0002307E0DE
:10201000FFF7A4FD074A136801331360F0E70133AB
:10202000084A9342FBDD0120FEF78CFC08BD00BF8F
:10203000000C02401C02002014000020200200209E
:10204000000002403F420F0008B50248FFF70AFBBC
:1020500008BD00BF840300200F49D1F8883043F445
:102060007003C1F888300D4B1A6842F001021A6003
:10207000002098601A6822F0847222F480321A607C
:10208000074A5A601A6822F480221A60D8604FF01A
:1020900000638B60704700BF00ED00E00038024035
:1020A00010300024DFF834D0002103E00C4B5B58E3
:1020B000435004310B480C4B42189A42F6D30B4A5A
:1020C00002E0002342F8043B094B9A42F9D3FFF7A0
:1020D000C3FF00F015F8FFF7EFFD70470000022086
:1020E000FC2D000800000020EC010020EC01002085
:1020F000C8030020FEE70A22002100F01DB90000FD
:1021000070B50D4E0D4CA41BA4100025A54209D19D
:102110000B4E0C4C00F044FDA41BA4100025A5425E
:1021200005D170BD56F8253098470135EEE756F8D1
:10213000253098470135F2E7F42D0008F42D00080A
:10214000F42D0008F82D000802440346934200D104
:10215000704703F8011BF9E70EB400B59CB01DAB46
:10216000029006906FF000410948079104910949D7
:1021700053F8042B05910068019302A900F012FAAC
:10218000029B00221A701CB05DF804EB03B070478C
:102190001C0000200802FFFF134B2DE9F0411D68D1
:1021A000AC6D06460F46B4B9502000F0DFF8A865C4
:1021B000C0E90044C0E90244C0E90444C0E90A445B
:1021C000C0E90C44C0E90E44C0E91044C0E912441F
:1021D000846104774462AA6D394630460123BDE824
:1021E000F04100F003B800BF1C000020F0B518B9A2
:1021F000106808B9F0BD204604460F4614F8015B8C
:1022000017F8016B1EB96DB915602846F2E7B542A3
:10221000F6D1002BEFD114600370EBE72B460DE0F5
:1022200026B91C4623460F4613F8015B17F8016BCD
:10223000B542F5D1002DF1D0002121701360D9E70E
:102240002DE9F0478046894692461E460F463D4698
:10225000089815F8014B00F085F82044437813F0F6
:10226000080332D12D2C32D17C78BD1C0122002EE6
:102270005DD0102E09D1302C07D12B7803F0DF036D
:10228000582B4FD16C7810260235002A14BF4FF01E
:1022900000416FF000410027B1FBF6FC384606FB19
:1022A0001C1EA4F13003092B17D81C46A64223DDBF
:1022B0007B1C07D084451CD301D1A64519DB00FB4C
:1022C0000640012715F8014BEBE72F46BFE72B2C03
:1022D00004BFBD1C7C781A46C9E7A4F14103192B41
:1022E00001D8373CE2E7A4F16103192B04D8573C2D
:1022F000DCE74FF0FF37E5E77B1C08D12223C8F865
:1023000000300846BAF1000F07D1BDE8F08702B1EE
:102310004042BAF1000FF8D00FB105F1FF39CAF809
:102320000090F2E73024002EAFD10826ADE7302C24
:10233000A3D00A26A9E70000084B37B51C68084D52
:10234000236A002B08BF2B46009313460A4601461A
:102350002046FFF775FF03B030BD00BF1C00002012
:1023600080000020D0F8EC0070470000024B0146CE
:10237000186800F063B800BF1C00002082B001B9EB
:1023800001A942B14BB113780B601278101C18BF31
:10239000012002B070471046FBE76FF00100F8E73C
:1023A00038B50546002945D051F8043C0C1F002BD8
:1023B000B8BFE41800F0B5FB1F4A1368104633B9E4
:1023C000636014602846BDE8384000F0ABBBA34210
:1023D0000CD921686218934204BF1A685B68636075
:1023E00004BF521822600460ECE713465A680AB131
:1023F000A242FAD919685818A0420BD120680144AA
:10240000581882421960DDD1106852685A60014440
:102410001960D7E702D90C232B60D3E72068211875
:102420008A4204BF11685268626004BF09182160C3
:102430005C60C7E738BD00BF3402002070B5CD1C1A
:1024400025F0030508350C2D38BF0C25002D064658
:1024500001DBA94203D90C233360002070BD00F0DA
:1024600060FB214A1468214691B9204C23681BB9AE
:10247000304600F015FB20602946304600F010FB86
:10248000431C24D10C233360304600F04BFBE4E7BF
:102490000B685B1B18D40B2B0FD90B60CD50CC18DD
:1024A000304600F03FFB04F10B00231D20F0070035
:1024B000C31AD3D05A42E250D0E78C424B6816BFC1
:1024C000636013600C46EBE70C464968CCE7C41C1C
:1024D00024F00304A04205D0211A304600F0E0FAAF
:1024E0000130CFD02560DBE7340200203802002025
:1024F0002DE9F0478E689E4282460C4690469946EA
:1025000037D88A8912F4906F31D0256809696F1A1B
:102510006569022305EB450595FBF3F509F1010318
:102520003B449D4238BF1D46530530D52946FFF731
:1025300085FF064650B90C23CAF80030A38943F042
:102540004003A3814FF0FF30BDE8F0873A46216990
:1025500000F0C3FAA38923F4906343F08003A381BE
:10256000266165613E44ED1B2660A5604E464E45E2
:1025700000D94E4632464146206800F0B9FAA368B9
:102580009B1BA36023681E4426600020DCE72A46CC
:1025900000F0C9FA06460028E2D121695046FFF74B
:1025A000FFFEC8E72DE9F04F9DB0804603938B896D
:1025B0001D060C4616460FD50B696BB94021FFF777
:1025C0003DFF2060206128B90C23C8F800304FF08F
:1025D000FF30C7E0402363610023099320238DF877
:1025E000293030238DF82A304FF0010B37463D4615
:1025F00015F8013B0BB1252B3ED1B7EB060A0BD0EA
:102600005346324621464046FFF772FF013000F044
:10261000A480099B534409933B78002B00F09D80D4
:1026200000234FF0FF32CDE90523049307938DF883
:1026300053301A932F46052217F8011B4F48FDF718
:1026400047FF049BD0B9D90644BF20228DF8532000
:102650001A0744BF2B228DF853202A782A2A15D036
:10266000079A2F4600200A25394611F8013B303BD6
:10267000092B4DD9B8B10FE02F46B8E73F4A801A71
:102680000BFA00F0184304903D46D3E7039A111D5E
:1026900012680391002A01DB079204E0524243F0E2
:1026A0000203079204933B782E2B0CD17B782A2BC4
:1026B00033D1039B1A1D1B680392002BB8BF4FF048
:1026C000FF33023705932E4D397803222846FDF754
:1026D000FFFE38B14023401B03FA00F0049B034384
:1026E00001370493397827488DF8281006227E1C7C
:1026F000FDF7EEFE002838D0234B13BB039B0733B6
:1027000023F0070308330393099B4B4409936DE7B8
:1027100005FB023201200F46A6E70023013705938F
:1027200019460A25384610F8012B303A092A03D9F0
:10273000002BC8D00591C6E705FB01210123074600
:10274000F0E703AB00932246104B04A94046AFF3D9
:102750000080B0F1FF3F8146D6D1A3895B063FF5EB
:1027600036AF09981DB0BDE8F08F03AB0093224649
:10277000064B04A9404600F081F8EAE7B62C0008B1
:10278000BC2C0008C02C000800000000F124000848
:102790002DE9F04791461F468A680B69DDF82080D5
:1027A0009342B8BF1346C9F8003091F8432006465B
:1027B0000C4612B10133C9F800302368990642BFB4
:1027C000D9F800300233C9F80030256815F0060545
:1027D00007D104F1190AE368D9F800209B1AAB422B
:1027E00028DC94F843302268003318BF0123920696
:1027F0002DD404F1430239463046C047013020D081
:102800002368E568D9F8002003F00603042B08BF0D
:10281000AD1AA36822690CBF25EAE575002593422D
:10282000C4BF9B1AED184FF000091A344D451AD158
:10283000002008E00123524639463046C0470130A7
:1028400003D14FF0FF30BDE8F0870135C3E7E11851
:102850005A1C302081F84300224494F8451082F835
:1028600043100233C5E70123224639463046C047AC
:102870000130E6D009F10109D8E700002DE9F04365
:1028800001F1430C0C46097E85B06E2917460646B9
:1028900098460C9A00F0B38022D8632936D00AD823
:1028A000002900F0B980582900F0838004F1420526
:1028B00084F8421032E0642901D06929F6D12068F9
:1028C0001368050603F104012AD51B681160002B6B
:1028D00003DA2D225B4284F843206F480A2239E054
:1028E000732900F09D8008D86F2920D07029DDD190
:1028F000236843F02003236003E0752917D078296B
:10290000D4D1782384F84530644855E01368191D04
:102910001B68116004F1420584F8423001238CE009
:102920001B68116010F0400F18BF1BB2CFE713688F
:102930002568181D1060280601D51B6802E068068E
:10294000FBD51B8854486F2914BF0A220822002196
:1029500084F843106568A560002DC0F29580216859
:1029600021F004012160002B3DD1002D40F08E802C
:102970006546082A0BD12368DB0708D523696268FE
:102980009A42DEBF302305F8013C05F1FF35ACEB80
:1029900005032361CDF800803B4603AA214630465B
:1029A000FFF7F6FE01304DD14FF0FF3005B0BDE826
:1029B000F083394884F84510136821681D1D1B6891
:1029C00015600A060BD5CA0744BF41F020012160FB
:1029D0001BB9226822F0200222601022B7E74D06C0
:1029E00048BF9BB2EFE76546B3FBF2F102FB113340
:1029F000C35C05F8013D0B460029F5D1B9E7136822
:102A000025686169181D106028061B6801D51960CA
:102A100002E06A06FBD51980002323616546B9E709
:102A20001368191D11601D68626800212846FDF7B2
:102A30004FFD08B1401B606063682361002384F888
:102A40004330A7E723692A4639463046C04701305C
:102A5000AAD023689B0713D4E068039B9842B8BFB1
:102A60001846A3E701234A4639463046C04701309D
:102A70009AD00135E368039A9B1AAB42F2DCEBE78C
:102A8000002504F11909F5E7002BACD1037884F88F
:102A9000423004F142056CE7C72C0008D82C00082E
:102AA00038B5064C002305460846236000F06AF856
:102AB000431C02D1236803B12B6038BDC40300203E
:102AC00049B1FF2A85BF8A2303600A704FF0FF30A7
:102AD00098BF012070470846704710B5431E0A444E
:102AE000914200D110BD11F8014B03F8014FF7E7F7
:102AF000884210B501EB020307D8421E99420AD062
:102B000011F8014B02F8014FF8E78342F5D981181B
:102B1000D21AD34200D110BD13F8014D01F8014D76
:102B2000F7E770477047F8B5074614460E4621B9D7
:102B30001146BDE8F840FFF781BC22B9FFF730FC31
:102B400025462846F8BD00F014F8A0420FD22146D1
:102B50003846FFF773FC05460028F2D0314622467E
:102B6000FFF7BBFF31463846FFF71AFCE9E7354669
:102B7000E7E751F8043C181F002BBCBF0B58C018E6
:102B800070470000044A05491368002B08BF0B4634
:102B900018441060184670473C020020C80300200B
:102BA000F8B500BFF8BC08BC9E467047F8B500BF3A
:082BB000F8BC08BC9E4670470A
:102BB80000000000000000000102030406070809E5
:102BC80000000000010203042E2E2F5372632F6DA4
:102BD80061696E2E6300000053756D6D6172792C0A
:102BE80020466565643A2025642074696D65732CF8
:102BF80020466F6F643A202564672C204361744532
:102C080061743A202564672C204F7665723A202536
:102C1800642074696D65732E00000000776569672C
:102C280068743A202564206720666565643A202523
:102C3800642074696D65732054696D65436F756EA2
:102C48007465723A202564204F7665725265716505
:102C58007573743A2025642074696D65732E0000BD
:102C6800200000004E6F7720736574206D61782016
:102C78006665656420746F20256420616E64206633
:102C88006F6F6420706572206665656420746F20BC
:102C980025642E0046656564696E673A2025646779
:102CA8002E0000004300504F534958002E00232D9A
:102CB800302B2000686C4C0065666745464700303D
:102CC800313233343536373839414243444546008A
:102CD800303132333435363738396162636465668A
:102CE80000002020202020202020202828282828F4
:102CF80020202020202020202020202020202020CC
:102D08002020881010101010101010101010101023
:102D18001010040404040404040404041010101023
:102D280010101041414141414101010101010101DE
:102D3800010101010101010101010101011010104E
:102D480010101042424242424202020202020202B1
:102D58000202020202020202020202020210101021
:102D6800102000000000000000000000000000002B
:102D7800000000000000000000000000000000004B
:102D8800000000000000000000000000000000003B
:102D9800000000000000000000000000000000002B
:102DA800000000000000000000000000000000001B
:102DB800000000000000000000000000000000000B
:102DC80000000000000000000000000000000000FB
:102DD80000000000000000000000000000000000EB
:042DE80000000000E7
:082DEC0014D4FF7F0100000078
:042DF400B50100081D
:042DF800910100083D
:102DFC000100000010000000F4010000C8000000F9
:102E0C003C000000040000000024F400200000201E
:102E1C0000000000000000000000000000000000A6
:102E2C000000000000000000000000000000000096
:102E3C000000000000000000000000000000000086
:102E4C000000000000000000000000000000000076
:102E5C000000000000000000000000000000000066
:102E6C000000000000000000000000000000000056
:102E7C004300000000000000000000000000000003
:102E8C000000000000000000000000000000000036
:102E9C0043000000000000000000000000000000E3
:102EAC000000000000000000000000000000000016
:102EBC0043000000000000000000000000000000C3
:102ECC0000000000000000000000000000000000F6
:102EDC0043000000000000000000000000000000A3
:102EEC0000000000000000000000000000000000D6
:102EFC004300000000000000000000000000000083
:102F0C0000000000000000000000000000000000B5
:102F1C004300000000000000000000000000000062
:102F2C000000000000000000000000000000000095
:102F3C004300000000000000000000000000000042
:102F4C000000000000000000000000000000000075
:102F5C00C12A00087D23000800000000E92C0008AD
:102F6C00B42C0008BB2C0008BB2C0008BB2C0008A0
:102F7C00BB2C0008BB2C0008BB2C0008BB2C000889
:102F8C00BB2C0008BB2C0008FFFFFFFFFFFFFFFF5F
:102F9C00FFFFFFFFFFFF00000100415343494900C1
:102FAC000000000000000000000000000000000015
:102FBC00000000000000000000004153434949009C
:102FCC0000000000000000000000000000000000F5
:0C2FDC00000000000000000000000000E9
:04000005080020A52A
:00000001FF
